{
  "_format": "hh-sol-artifact-1",
  "contractName": "Fluidex",
  "sourceName": "contracts/Fluidex.sol",
  "abi": [
    {
      "anonymous": false,
      "inputs": [
        {
          "indexed": false,
          "internalType": "uint16",
          "name": "tokenId",
          "type": "uint16"
        },
        {
          "indexed": false,
          "internalType": "address",
          "name": "to",
          "type": "address"
        },
        {
          "indexed": false,
          "internalType": "uint256",
          "name": "amount",
          "type": "uint256"
        }
      ],
      "name": "Deposit",
      "type": "event"
    },
    {
      "anonymous": false,
      "inputs": [
        {
          "indexed": false,
          "internalType": "address",
          "name": "sender",
          "type": "address"
        },
        {
          "indexed": false,
          "internalType": "uint64",
          "name": "serialId",
          "type": "uint64"
        },
        {
          "indexed": false,
          "internalType": "enum Operations.OpType",
          "name": "opType",
          "type": "uint8"
        },
        {
          "indexed": false,
          "internalType": "bytes",
          "name": "pubData",
          "type": "bytes"
        },
        {
          "indexed": false,
          "internalType": "uint256",
          "name": "expirationBlock",
          "type": "uint256"
        }
      ],
      "name": "NewPriorityRequest",
      "type": "event"
    },
    {
      "anonymous": false,
      "inputs": [
        {
          "indexed": false,
          "internalType": "address",
          "name": "tokenAddr",
          "type": "address"
        },
        {
          "indexed": false,
          "internalType": "uint16",
          "name": "tokenId",
          "type": "uint16"
        }
      ],
      "name": "NewToken",
      "type": "event"
    },
    {
      "anonymous": false,
      "inputs": [
        {
          "indexed": false,
          "internalType": "uint16",
          "name": "baseTokenId",
          "type": "uint16"
        },
        {
          "indexed": false,
          "internalType": "uint16",
          "name": "quoteTokenId",
          "type": "uint16"
        }
      ],
      "name": "NewTradingPair",
      "type": "event"
    },
    {
      "anonymous": false,
      "inputs": [
        {
          "indexed": true,
          "internalType": "address",
          "name": "previousOwner",
          "type": "address"
        },
        {
          "indexed": true,
          "internalType": "address",
          "name": "newOwner",
          "type": "address"
        }
      ],
      "name": "OwnershipTransferred",
      "type": "event"
    },
    {
      "anonymous": false,
      "inputs": [
        {
          "indexed": false,
          "internalType": "uint16",
          "name": "tokenId",
          "type": "uint16"
        },
        {
          "indexed": false,
          "internalType": "address",
          "name": "to",
          "type": "address"
        },
        {
          "indexed": false,
          "internalType": "uint256",
          "name": "amount",
          "type": "uint256"
        }
      ],
      "name": "Withdraw",
      "type": "event"
    },
    {
      "inputs": [
        {
          "internalType": "address",
          "name": "tokenAddr",
          "type": "address"
        }
      ],
      "name": "addToken",
      "outputs": [
        {
          "internalType": "uint16",
          "name": "",
          "type": "uint16"
        }
      ],
      "stateMutability": "nonpayable",
      "type": "function"
    },
    {
      "inputs": [
        {
          "internalType": "uint16",
          "name": "baseTokenId",
          "type": "uint16"
        },
        {
          "internalType": "uint16",
          "name": "quoteTokenId",
          "type": "uint16"
        }
      ],
      "name": "addTradingPair",
      "outputs": [],
      "stateMutability": "nonpayable",
      "type": "function"
    },
    {
      "inputs": [
        {
          "internalType": "contract IERC20",
          "name": "token",
          "type": "address"
        },
        {
          "internalType": "address",
          "name": "to",
          "type": "address"
        },
        {
          "internalType": "uint128",
          "name": "amount",
          "type": "uint128"
        }
      ],
      "name": "depositERC20",
      "outputs": [],
      "stateMutability": "nonpayable",
      "type": "function"
    },
    {
      "inputs": [
        {
          "internalType": "address",
          "name": "to",
          "type": "address"
        }
      ],
      "name": "depositETH",
      "outputs": [],
      "stateMutability": "payable",
      "type": "function"
    },
    {
      "inputs": [],
      "name": "firstPriorityRequestId",
      "outputs": [
        {
          "internalType": "uint64",
          "name": "",
          "type": "uint64"
        }
      ],
      "stateMutability": "view",
      "type": "function"
    },
    {
      "inputs": [],
      "name": "initialize",
      "outputs": [],
      "stateMutability": "nonpayable",
      "type": "function"
    },
    {
      "inputs": [],
      "name": "owner",
      "outputs": [
        {
          "internalType": "address",
          "name": "",
          "type": "address"
        }
      ],
      "stateMutability": "view",
      "type": "function"
    },
    {
      "inputs": [],
      "name": "renounceOwnership",
      "outputs": [],
      "stateMutability": "nonpayable",
      "type": "function"
    },
    {
      "inputs": [
        {
          "internalType": "address",
          "name": "",
          "type": "address"
        }
      ],
      "name": "tokenAddrToId",
      "outputs": [
        {
          "internalType": "uint16",
          "name": "",
          "type": "uint16"
        }
      ],
      "stateMutability": "view",
      "type": "function"
    },
    {
      "inputs": [
        {
          "internalType": "uint16",
          "name": "",
          "type": "uint16"
        }
      ],
      "name": "tokenIdToAddr",
      "outputs": [
        {
          "internalType": "address",
          "name": "",
          "type": "address"
        }
      ],
      "stateMutability": "view",
      "type": "function"
    },
    {
      "inputs": [],
      "name": "tokenNum",
      "outputs": [
        {
          "internalType": "uint16",
          "name": "",
          "type": "uint16"
        }
      ],
      "stateMutability": "view",
      "type": "function"
    },
    {
      "inputs": [],
      "name": "totalOpenPriorityRequests",
      "outputs": [
        {
          "internalType": "uint64",
          "name": "",
          "type": "uint64"
        }
      ],
      "stateMutability": "view",
      "type": "function"
    },
    {
      "inputs": [
        {
          "internalType": "address",
          "name": "newOwner",
          "type": "address"
        }
      ],
      "name": "transferOwnership",
      "outputs": [],
      "stateMutability": "nonpayable",
      "type": "function"
    },
    {
      "inputs": [
        {
          "internalType": "contract IERC20",
          "name": "token",
          "type": "address"
        },
        {
          "internalType": "address",
          "name": "to",
          "type": "address"
        },
        {
          "internalType": "uint128",
          "name": "amount",
          "type": "uint128"
        }
      ],
      "name": "withdrawERC20",
      "outputs": [],
      "stateMutability": "nonpayable",
      "type": "function"
    },
    {
      "inputs": [
        {
          "internalType": "address payable",
          "name": "to",
          "type": "address"
        },
        {
          "internalType": "uint128",
          "name": "amount",
          "type": "uint128"
        }
      ],
      "name": "withdrawETH",
      "outputs": [],
      "stateMutability": "nonpayable",
      "type": "function"
    }
  ],
  "bytecode": "0x608060405234801561001057600080fd5b50600160008190555060006100296100cd60201b60201c565b905080600360006101000a81548173ffffffffffffffffffffffffffffffffffffffff021916908373ffffffffffffffffffffffffffffffffffffffff1602179055508073ffffffffffffffffffffffffffffffffffffffff16600073ffffffffffffffffffffffffffffffffffffffff167f8be0079c531659141344cd1fd0a4f28419497f9722a3daafe3b4186f6b6457e060405160405180910390a3506100d5565b600033905090565b61240e806100e46000396000f3fe6080604052600436106100e85760003560e01c80638129fc1c1161008a578063c57b22be11610059578063c57b22be14610441578063c9c7256614610476578063d48bfca7146104df578063f2fde38b14610548576100e8565b80638129fc1c1461032d5780638da5cb5b14610344578063b14a521814610385578063bfa87e4614610412576100e8565b806341b893c6116100c657806341b893c6146101e75780636223c7ac1461025457806367708dae146102e1578063715018a614610316576100e8565b806309ca2ecf146100ed5780630e33334d146101565780632d2da806146101a3575b600080fd5b3480156100f957600080fd5b5061013c6004803603602081101561011057600080fd5b81019080803573ffffffffffffffffffffffffffffffffffffffff169060200190929190505050610599565b604051808261ffff16815260200191505060405180910390f35b34801561016257600080fd5b506101a16004803603604081101561017957600080fd5b81019080803561ffff169060200190929190803561ffff1690602001909291905050506105ba565b005b6101e5600480360360208110156101b957600080fd5b81019080803573ffffffffffffffffffffffffffffffffffffffff16906020019092919050505061068e565b005b3480156101f357600080fd5b506102526004803603604081101561020a57600080fd5b81019080803573ffffffffffffffffffffffffffffffffffffffff16906020019092919080356fffffffffffffffffffffffffffffffff169060200190929190505050610740565b005b34801561026057600080fd5b506102df6004803603606081101561027757600080fd5b81019080803573ffffffffffffffffffffffffffffffffffffffff169060200190929190803573ffffffffffffffffffffffffffffffffffffffff16906020019092919080356fffffffffffffffffffffffffffffffff1690602001909291905050506109cf565b005b3480156102ed57600080fd5b506102f6610d7e565b604051808267ffffffffffffffff16815260200191505060405180910390f35b34801561032257600080fd5b5061032b610d98565b005b34801561033957600080fd5b50610342610f23565b005b34801561035057600080fd5b50610359610f25565b604051808273ffffffffffffffffffffffffffffffffffffffff16815260200191505060405180910390f35b34801561039157600080fd5b50610410600480360360608110156103a857600080fd5b81019080803573ffffffffffffffffffffffffffffffffffffffff169060200190929190803573ffffffffffffffffffffffffffffffffffffffff16906020019092919080356fffffffffffffffffffffffffffffffff169060200190929190505050610f4f565b005b34801561041e57600080fd5b50610427611352565b604051808261ffff16815260200191505060405180910390f35b34801561044d57600080fd5b50610456611366565b604051808267ffffffffffffffff16815260200191505060405180910390f35b34801561048257600080fd5b506104b36004803603602081101561049957600080fd5b81019080803561ffff169060200190929190505050611380565b604051808273ffffffffffffffffffffffffffffffffffffffff16815260200191505060405180910390f35b3480156104eb57600080fd5b5061052e6004803603602081101561050257600080fd5b81019080803573ffffffffffffffffffffffffffffffffffffffff1690602001909291905050506113b3565b604051808261ffff16815260200191505060405180910390f35b34801561055457600080fd5b506105976004803603602081101561056b57600080fd5b81019080803573ffffffffffffffffffffffffffffffffffffffff1690602001909291905050506116f2565b005b60056020528060005260406000206000915054906101000a900461ffff1681565b60026000541415610633576040517f08c379a000000000000000000000000000000000000000000000000000000000815260040180806020018281038252601f8152602001807f5265656e7472616e637947756172643a207265656e7472616e742063616c6c0081525060200191505060405180910390fd5b60026000819055507f556a6fe49c7192e2d3df10cd45d0534935afb42312baaf5da5fc4bb1ddf3fe418282604051808361ffff1681526020018261ffff1681526020019250505060405180910390a160016000819055505050565b600073ffffffffffffffffffffffffffffffffffffffff168173ffffffffffffffffffffffffffffffffffffffff161415610731576040517f08c379a000000000000000000000000000000000000000000000000000000000815260040180806020018281038252600f8152602001807f696e76616c69642061646472657373000000000000000000000000000000000081525060200191505060405180910390fd5b61073d60008234611902565b50565b600260005414156107b9576040517f08c379a000000000000000000000000000000000000000000000000000000000815260040180806020018281038252601f8152602001807f5265656e7472616e637947756172643a207265656e7472616e742063616c6c0081525060200191505060405180910390fd5b6002600081905550600073ffffffffffffffffffffffffffffffffffffffff168273ffffffffffffffffffffffffffffffffffffffff161415610864576040517f08c379a000000000000000000000000000000000000000000000000000000000815260040180806020018281038252600f8152602001807f696e76616c69642061646472657373000000000000000000000000000000000081525060200191505060405180910390fd5b60008273ffffffffffffffffffffffffffffffffffffffff16826fffffffffffffffffffffffffffffffff1660405180600001905060006040518083038185875af1925050503d80600081146108d6576040519150601f19603f3d011682016040523d82523d6000602084013e6108db565b606091505b5050905080610952576040517f08c379a000000000000000000000000000000000000000000000000000000000815260040180806020018281038252600b8152602001807f776974686472617745544800000000000000000000000000000000000000000081525060200191505060405180910390fd5b7f3a1f8a7d4c39f62327e9a798fb5c25bdd080a161bd152f56eb2e2c7d6ad69fb860008484604051808481526020018373ffffffffffffffffffffffffffffffffffffffff168152602001826fffffffffffffffffffffffffffffffff168152602001935050505060405180910390a15060016000819055505050565b60026000541415610a48576040517f08c379a000000000000000000000000000000000000000000000000000000000815260040180806020018281038252601f8152602001807f5265656e7472616e637947756172643a207265656e7472616e742063616c6c0081525060200191505060405180910390fd5b6002600081905550600073ffffffffffffffffffffffffffffffffffffffff168273ffffffffffffffffffffffffffffffffffffffff161415610af3576040517f08c379a000000000000000000000000000000000000000000000000000000000815260040180806020018281038252600f8152602001807f696e76616c69642061646472657373000000000000000000000000000000000081525060200191505060405180910390fd5b6000600560008573ffffffffffffffffffffffffffffffffffffffff1673ffffffffffffffffffffffffffffffffffffffff16815260200190815260200160002060009054906101000a900461ffff16905060008161ffff161415610bc0576040517f08c379a000000000000000000000000000000000000000000000000000000000815260040180806020018281038252600d8152602001807f696e76616c696420746f6b656e0000000000000000000000000000000000000081525060200191505060405180910390fd5b60008473ffffffffffffffffffffffffffffffffffffffff166370a08231306040518263ffffffff1660e01b8152600401808273ffffffffffffffffffffffffffffffffffffffff16815260200191505060206040518083038186803b158015610c2957600080fd5b505afa158015610c3d573d6000803e3d6000fd5b505050506040513d6020811015610c5357600080fd5b81019080805190602001909291905050509050610ca53330856fffffffffffffffffffffffffffffffff168873ffffffffffffffffffffffffffffffffffffffff166119ce909392919063ffffffff16565b60008573ffffffffffffffffffffffffffffffffffffffff166370a08231306040518263ffffffff1660e01b8152600401808273ffffffffffffffffffffffffffffffffffffffff16815260200191505060206040518083038186803b158015610d0e57600080fd5b505afa158015610d22573d6000803e3d6000fd5b505050506040513d6020811015610d3857600080fd5b810190808051906020019092919050505090506000610d608383611a8f90919063ffffffff16565b9050610d6d848783611902565b505050506001600081905550505050565b600160009054906101000a900467ffffffffffffffff1681565b610da0611ad9565b73ffffffffffffffffffffffffffffffffffffffff16600360009054906101000a900473ffffffffffffffffffffffffffffffffffffffff1673ffffffffffffffffffffffffffffffffffffffff1614610e62576040517f08c379a00000000000000000000000000000000000000000000000000000000081526004018080602001828103825260208152602001807f4f776e61626c653a2063616c6c6572206973206e6f7420746865206f776e657281525060200191505060405180910390fd5b600073ffffffffffffffffffffffffffffffffffffffff16600360009054906101000a900473ffffffffffffffffffffffffffffffffffffffff1673ffffffffffffffffffffffffffffffffffffffff167f8be0079c531659141344cd1fd0a4f28419497f9722a3daafe3b4186f6b6457e060405160405180910390a36000600360006101000a81548173ffffffffffffffffffffffffffffffffffffffff021916908373ffffffffffffffffffffffffffffffffffffffff160217905550565b565b6000600360009054906101000a900473ffffffffffffffffffffffffffffffffffffffff16905090565b60026000541415610fc8576040517f08c379a000000000000000000000000000000000000000000000000000000000815260040180806020018281038252601f8152602001807f5265656e7472616e637947756172643a207265656e7472616e742063616c6c0081525060200191505060405180910390fd5b6002600081905550600073ffffffffffffffffffffffffffffffffffffffff168273ffffffffffffffffffffffffffffffffffffffff161415611073576040517f08c379a000000000000000000000000000000000000000000000000000000000815260040180806020018281038252600f8152602001807f696e76616c69642061646472657373000000000000000000000000000000000081525060200191505060405180910390fd5b6000600560008573ffffffffffffffffffffffffffffffffffffffff1673ffffffffffffffffffffffffffffffffffffffff16815260200190815260200160002060009054906101000a900461ffff16905060008161ffff161415611140576040517f08c379a000000000000000000000000000000000000000000000000000000000815260040180806020018281038252600d8152602001807f696e76616c696420746f6b656e0000000000000000000000000000000000000081525060200191505060405180910390fd5b60008473ffffffffffffffffffffffffffffffffffffffff166370a08231306040518263ffffffff1660e01b8152600401808273ffffffffffffffffffffffffffffffffffffffff16815260200191505060206040518083038186803b1580156111a957600080fd5b505afa1580156111bd573d6000803e3d6000fd5b505050506040513d60208110156111d357600080fd5b8101908080519060200190929190505050905061122384846fffffffffffffffffffffffffffffffff168773ffffffffffffffffffffffffffffffffffffffff16611ae19092919063ffffffff16565b60008573ffffffffffffffffffffffffffffffffffffffff166370a08231306040518263ffffffff1660e01b8152600401808273ffffffffffffffffffffffffffffffffffffffff16815260200191505060206040518083038186803b15801561128c57600080fd5b505afa1580156112a0573d6000803e3d6000fd5b505050506040513d60208110156112b657600080fd5b8101908080519060200190929190505050905060006112de8284611a8f90919063ffffffff16565b90507f3a1f8a7d4c39f62327e9a798fb5c25bdd080a161bd152f56eb2e2c7d6ad69fb8848783604051808461ffff1681526020018373ffffffffffffffffffffffffffffffffffffffff168152602001828152602001935050505060405180910390a1505050506001600081905550505050565b600360149054906101000a900461ffff1681565b600160089054906101000a900467ffffffffffffffff1681565b60046020528060005260406000206000915054906101000a900473ffffffffffffffffffffffffffffffffffffffff1681565b60006002600054141561142e576040517f08c379a000000000000000000000000000000000000000000000000000000000815260040180806020018281038252601f8152602001807f5265656e7472616e637947756172643a207265656e7472616e742063616c6c0081525060200191505060405180910390fd5b60026000819055506003601481819054906101000a900461ffff168092919060010191906101000a81548161ffff021916908361ffff160217905550506000600560008473ffffffffffffffffffffffffffffffffffffffff1673ffffffffffffffffffffffffffffffffffffffff16815260200190815260200160002060009054906101000a900461ffff1661ffff1614611532576040517f08c379a000000000000000000000000000000000000000000000000000000000815260040180806020018281038252600d8152602001807f746f6b656e20657869737465640000000000000000000000000000000000000081525060200191505060405180910390fd5b61ffff8016600360149054906101000a900461ffff1661ffff16106115bf576040517f08c379a00000000000000000000000000000000000000000000000000000000081526004018080602001828103825260178152602001807f746f6b656e206e756d206c696d6974207265616368656400000000000000000081525060200191505060405180910390fd5b6000600360149054906101000a900461ffff16905082600460008361ffff1661ffff16815260200190815260200160002060006101000a81548173ffffffffffffffffffffffffffffffffffffffff021916908373ffffffffffffffffffffffffffffffffffffffff16021790555080600560008573ffffffffffffffffffffffffffffffffffffffff1673ffffffffffffffffffffffffffffffffffffffff16815260200190815260200160002060006101000a81548161ffff021916908361ffff1602179055507ffe74dea79bde70d1990ddb655bac45735b14f495ddc508cfab80b7729aa9d6688382604051808373ffffffffffffffffffffffffffffffffffffffff1681526020018261ffff1681526020019250505060405180910390a1809150506001600081905550919050565b6116fa611ad9565b73ffffffffffffffffffffffffffffffffffffffff16600360009054906101000a900473ffffffffffffffffffffffffffffffffffffffff1673ffffffffffffffffffffffffffffffffffffffff16146117bc576040517f08c379a00000000000000000000000000000000000000000000000000000000081526004018080602001828103825260208152602001807f4f776e61626c653a2063616c6c6572206973206e6f7420746865206f776e657281525060200191505060405180910390fd5b600073ffffffffffffffffffffffffffffffffffffffff168173ffffffffffffffffffffffffffffffffffffffff161415611842576040517f08c379a00000000000000000000000000000000000000000000000000000000081526004018080602001828103825260268152602001806123636026913960400191505060405180910390fd5b8073ffffffffffffffffffffffffffffffffffffffff16600360009054906101000a900473ffffffffffffffffffffffffffffffffffffffff1673ffffffffffffffffffffffffffffffffffffffff167f8be0079c531659141344cd1fd0a4f28419497f9722a3daafe3b4186f6b6457e060405160405180910390a380600360006101000a81548173ffffffffffffffffffffffffffffffffffffffff021916908373ffffffffffffffffffffffffffffffffffffffff16021790555050565b61190a61231a565b6040518060800160405280600063ffffffff1681526020018561ffff1681526020018381526020018473ffffffffffffffffffffffffffffffffffffffff168152509050606061195982611b83565b9050611966600082611c2c565b7f1ebdf9946bb1531759f2100f77d6319f8f0a70663c87f0e3c4976cf417c6ec07858585604051808461ffff1681526020018373ffffffffffffffffffffffffffffffffffffffff168152602001828152602001935050505060405180910390a15050505050565b611a89846323b872dd60e01b858585604051602401808473ffffffffffffffffffffffffffffffffffffffff1681526020018373ffffffffffffffffffffffffffffffffffffffff1681526020018281526020019350505050604051602081830303815290604052907bffffffffffffffffffffffffffffffffffffffffffffffffffffffff19166020820180517bffffffffffffffffffffffffffffffffffffffffffffffffffffffff8381831617835250505050611eb4565b50505050565b6000611ad183836040518060400160405280601e81526020017f536166654d6174683a207375627472616374696f6e206f766572666c6f770000815250611fa3565b905092915050565b600033905090565b611b7e8363a9059cbb60e01b8484604051602401808373ffffffffffffffffffffffffffffffffffffffff16815260200182815260200192505050604051602081830303815290604052907bffffffffffffffffffffffffffffffffffffffffffffffffffffffff19166020820180517bffffffffffffffffffffffffffffffffffffffffffffffffffffffff8381831617835250505050611eb4565b505050565b6060600080811115611b9157fe5b600060e01b836020015184604001518560600151604051602001808660ff1660f81b8152600101857bffffffffffffffffffffffffffffffffffffffffffffffffffffffff191681526004018461ffff1660f01b81526002018381526020018273ffffffffffffffffffffffffffffffffffffffff1660601b8152601401955050505050506040516020818303038152906040529050919050565b6000600f6203f48081611c3b57fe5b04430190506000600160089054906101000a900467ffffffffffffffff16600160009054906101000a900467ffffffffffffffff160190506000611c7e84612063565b90506040518060600160405280826bffffffffffffffffffffffff191681526020018467ffffffffffffffff168152602001866000811115611cbc57fe5b815250600260008467ffffffffffffffff1667ffffffffffffffff16815260200190815260200160002060008201518160000160006101000a81548173ffffffffffffffffffffffffffffffffffffffff021916908360601c021790555060208201518160000160146101000a81548167ffffffffffffffff021916908367ffffffffffffffff160217905550604082015181600001601c6101000a81548160ff02191690836000811115611d6d57fe5b02179055509050507fd0943372c08b438a88d4b39d77216901079eda9ca59d45349841c099083b6830338387878767ffffffffffffffff16604051808673ffffffffffffffffffffffffffffffffffffffff1681526020018567ffffffffffffffff168152602001846000811115611de157fe5b815260200180602001838152602001828103825284818151815260200191508051906020019080838360005b83811015611e28578082015181840152602081019050611e0d565b50505050905090810190601f168015611e555780820380516001836020036101000a031916815260200191505b50965050505050505060405180910390a16001600881819054906101000a900467ffffffffffffffff168092919060010191906101000a81548167ffffffffffffffff021916908367ffffffffffffffff160217905550505050505050565b6060611f16826040518060400160405280602081526020017f5361666545524332303a206c6f772d6c6576656c2063616c6c206661696c65648152508573ffffffffffffffffffffffffffffffffffffffff1661207a9092919063ffffffff16565b9050600081511115611f9e57808060200190516020811015611f3757600080fd5b8101908080519060200190929190505050611f9d576040517f08c379a000000000000000000000000000000000000000000000000000000000815260040180806020018281038252602a8152602001806123af602a913960400191505060405180910390fd5b5b505050565b6000838311158290612050576040517f08c379a00000000000000000000000000000000000000000000000000000000081526004018080602001828103825283818151815260200191508051906020019080838360005b83811015612015578082015181840152602081019050611ffa565b50505050905090810190601f1680156120425780820380516001836020036101000a031916815260200191505b509250505060405180910390fd5b5060008385039050809150509392505050565b6000818051906020012060001c60601b9050919050565b60606120898484600085612092565b90509392505050565b6060824710156120ed576040517f08c379a00000000000000000000000000000000000000000000000000000000081526004018080602001828103825260268152602001806123896026913960400191505060405180910390fd5b6120f68561223b565b612168576040517f08c379a000000000000000000000000000000000000000000000000000000000815260040180806020018281038252601d8152602001807f416464726573733a2063616c6c20746f206e6f6e2d636f6e747261637400000081525060200191505060405180910390fd5b600060608673ffffffffffffffffffffffffffffffffffffffff1685876040518082805190602001908083835b602083106121b85780518252602082019150602081019050602083039250612195565b6001836020036101000a03801982511681845116808217855250505050505090500191505060006040518083038185875af1925050503d806000811461221a576040519150601f19603f3d011682016040523d82523d6000602084013e61221f565b606091505b509150915061222f82828661224e565b92505050949350505050565b600080823b905060008111915050919050565b6060831561225e57829050612313565b6000835111156122715782518084602001fd5b816040517f08c379a00000000000000000000000000000000000000000000000000000000081526004018080602001828103825283818151815260200191508051906020019080838360005b838110156122d85780820151818401526020810190506122bd565b50505050905090810190601f1680156123055780820380516001836020036101000a031916815260200191505b509250505060405180910390fd5b9392505050565b6040518060800160405280600063ffffffff168152602001600061ffff16815260200160008152602001600073ffffffffffffffffffffffffffffffffffffffff168152509056fe4f776e61626c653a206e6577206f776e657220697320746865207a65726f2061646472657373416464726573733a20696e73756666696369656e742062616c616e636520666f722063616c6c5361666545524332303a204552433230206f7065726174696f6e20646964206e6f742073756363656564a26469706673582212201c402530264e6e1e0a3ceadc6de3bf9afe8d776f4ca0cba283562a8502f156f864736f6c63430007030033",
  "linkReferences": {},
  "deployedLinkReferences": {}
}